{
  "contractName": "HTLC",
  "abi": [
    {
      "inputs": [
        {
          "internalType": "address",
          "name": "_recipient",
          "type": "address"
        },
        {
          "internalType": "address",
          "name": "_token",
          "type": "address"
        },
        {
          "internalType": "uint256",
          "name": "_amount",
          "type": "uint256"
        }
      ],
      "stateMutability": "nonpayable",
      "type": "constructor"
    },
    {
      "inputs": [],
      "name": "amount",
      "outputs": [
        {
          "internalType": "uint256",
          "name": "",
          "type": "uint256"
        }
      ],
      "stateMutability": "view",
      "type": "function",
      "constant": true
    },
    {
      "inputs": [],
      "name": "lockTime",
      "outputs": [
        {
          "internalType": "uint256",
          "name": "",
          "type": "uint256"
        }
      ],
      "stateMutability": "view",
      "type": "function",
      "constant": true
    },
    {
      "inputs": [],
      "name": "owner",
      "outputs": [
        {
          "internalType": "address",
          "name": "",
          "type": "address"
        }
      ],
      "stateMutability": "view",
      "type": "function",
      "constant": true
    },
    {
      "inputs": [],
      "name": "recipient",
      "outputs": [
        {
          "internalType": "address",
          "name": "",
          "type": "address"
        }
      ],
      "stateMutability": "view",
      "type": "function",
      "constant": true
    },
    {
      "inputs": [],
      "name": "secret",
      "outputs": [
        {
          "internalType": "string",
          "name": "",
          "type": "string"
        }
      ],
      "stateMutability": "view",
      "type": "function",
      "constant": true
    },
    {
      "inputs": [],
      "name": "startTime",
      "outputs": [
        {
          "internalType": "uint256",
          "name": "",
          "type": "uint256"
        }
      ],
      "stateMutability": "view",
      "type": "function",
      "constant": true
    },
    {
      "inputs": [],
      "name": "token",
      "outputs": [
        {
          "internalType": "contract IERC20",
          "name": "",
          "type": "address"
        }
      ],
      "stateMutability": "view",
      "type": "function",
      "constant": true
    },
    {
      "inputs": [],
      "name": "fund",
      "outputs": [],
      "stateMutability": "nonpayable",
      "type": "function"
    }
  ],
  "bytecode": "0x608060405261271060015534801561001657600080fd5b5060405161084038038061084083398181016040528101906100389190610134565b82600360006101000a81548173ffffffffffffffffffffffffffffffffffffffff021916908373ffffffffffffffffffffffffffffffffffffffff16021790555033600460006101000a81548173ffffffffffffffffffffffffffffffffffffffff021916908373ffffffffffffffffffffffffffffffffffffffff1602179055508060058190555081600660006101000a81548173ffffffffffffffffffffffffffffffffffffffff021916908373ffffffffffffffffffffffffffffffffffffffff1602179055505050506101ed565b600081519050610119816101bf565b92915050565b60008151905061012e816101d6565b92915050565b60008060006060848603121561014957600080fd5b60006101578682870161010a565b93505060206101688682870161010a565b92505060406101798682870161011f565b9150509250925092565b600061018e82610195565b9050919050565b600073ffffffffffffffffffffffffffffffffffffffff82169050919050565b6000819050919050565b6101c881610183565b81146101d357600080fd5b50565b6101df816101b5565b81146101ea57600080fd5b50565b610644806101fc6000396000f3fe608060405234801561001057600080fd5b50600436106100885760003560e01c8063aa8c217c1161005b578063aa8c217c14610105578063b60d428814610123578063d1efd30d1461012d578063fc0c546a1461014b57610088565b80630d6680871461008d57806366d003ac146100ab57806378e97925146100c95780638da5cb5b146100e7575b600080fd5b610095610169565b6040516100a291906104af565b60405180910390f35b6100b361016f565b6040516100c09190610420565b60405180910390f35b6100d1610195565b6040516100de91906104af565b60405180910390f35b6100ef61019b565b6040516100fc9190610420565b60405180910390f35b61010d6101c1565b60405161011a91906104af565b60405180910390f35b61012b6101c7565b005b6101356102c8565b604051610142919061048d565b60405180910390f35b610153610356565b6040516101609190610472565b60405180910390f35b60015481565b600360009054906101000a900473ffffffffffffffffffffffffffffffffffffffff1681565b60005481565b600460009054906101000a900473ffffffffffffffffffffffffffffffffffffffff1681565b60055481565b42600081905550600660009054906101000a900473ffffffffffffffffffffffffffffffffffffffff1673ffffffffffffffffffffffffffffffffffffffff166323b872dd600460009054906101000a900473ffffffffffffffffffffffffffffffffffffffff16600360009054906101000a900473ffffffffffffffffffffffffffffffffffffffff166005546040518463ffffffff1660e01b81526004016102739392919061043b565b602060405180830381600087803b15801561028d57600080fd5b505af11580156102a1573d6000803e3d6000fd5b505050506040513d601f19601f820116820180604052508101906102c59190610391565b50565b600280546102d590610585565b80601f016020809104026020016040519081016040528092919081815260200182805461030190610585565b801561034e5780601f106103235761010080835404028352916020019161034e565b820191906000526020600020905b81548152906001019060200180831161033157829003601f168201915b505050505081565b600660009054906101000a900473ffffffffffffffffffffffffffffffffffffffff1681565b60008151905061038b816105f7565b92915050565b6000602082840312156103a357600080fd5b60006103b18482850161037c565b91505092915050565b6103c3816104e6565b82525050565b6103d28161052e565b82525050565b60006103e3826104ca565b6103ed81856104d5565b93506103fd818560208601610552565b610406816105e6565b840191505092915050565b61041a81610524565b82525050565b600060208201905061043560008301846103ba565b92915050565b600060608201905061045060008301866103ba565b61045d60208301856103ba565b61046a6040830184610411565b949350505050565b600060208201905061048760008301846103c9565b92915050565b600060208201905081810360008301526104a781846103d8565b905092915050565b60006020820190506104c46000830184610411565b92915050565b600081519050919050565b600082825260208201905092915050565b60006104f182610504565b9050919050565b60008115159050919050565b600073ffffffffffffffffffffffffffffffffffffffff82169050919050565b6000819050919050565b600061053982610540565b9050919050565b600061054b82610504565b9050919050565b60005b83811015610570578082015181840152602081019050610555565b8381111561057f576000848401525b50505050565b6000600282049050600182168061059d57607f821691505b602082108114156105b1576105b06105b7565b5b50919050565b7f4e487b7100000000000000000000000000000000000000000000000000000000600052602260045260246000fd5b6000601f19601f8301169050919050565b610600816104f8565b811461060b57600080fd5b5056fea2646970667358221220915756eb97a418715108c3ff2d6200642670f942623963b678f04c23f2365e3464736f6c63430008000033",
  "immutableReferences": {},
  "source": "// SPDX-License-Identifier: GPL-3.0\npragma solidity ^0.8.0; \n\nimport '@openzeppelin/contracts/token/ERC20/IERC20.sol';\n\ncontract HTLC {\n  uint public startTime;\n  uint public lockTime = 10000 seconds;\n  string public secret; //swapping\n  \n  address public recipient;\n  address public owner; \n  uint public amount; \n  IERC20 public token;\n\n  constructor(address _recipient, address _token, uint _amount) { \n    recipient = _recipient;\n    owner = msg.sender; \n    amount = _amount;\n    token = IERC20(_token);\n  } \n\n  function fund() external {\n    startTime = block.timestamp;\n    token.transferFrom(owner,  recipient, amount);\n  }\n\n  \n}\n",
  "sourcePath": "/home/babar/Downloads/atomic swap (copy)/contracts/HTLC.sol",
  "compiler": {
    "name": "solc",
    "version": "0.8.0+commit.c7dfd78e.Emscripten.clang"
  },
  "schemaVersion": "3.4.7",
  "updatedAt": "2022-06-26T16:33:46.448Z",
  "networkType": "ethereum",
  "devdoc": {
    "kind": "dev",
    "methods": {},
    "version": 1
  },
  "userdoc": {
    "kind": "user",
    "methods": {},
    "version": 1
  }
}